:020000040800F2
:1000000000000120C5020008CB020008CF02000852
:1000100041030008450300088D03000800000000AC
:10002000000000000000000000000000E1250008C2
:10003000D90300080000000081260008E52600081A
:10004000F1030008F1030008F1030008F1030008C0
:10005000F1030008F1030008F1030008F1030008B0
:10006000F1030008F1030008F1030008F1030008A0
:10007000F1030008F1030008F1030008F103000890
:10008000F1030008F1030008F1030008000000007C
:10009000000000000000000000000000F103000864
:1000A000F1030008F1030008F1030008F103000860
:1000B000F1030008F1030008F1030008F103000850
:1000C000F1030008F1030008F1030008F103000840
:1000D000F103000871110008F1030008000000009E
:1000E000F1030008F1030008F1030008000000001C
:1000F000000000000000000000000000F103000804
:1001000000000000F1030008F1030008F1030008FB
:1001100000000000000000000000000000000000DF
:10012000F1030008F1030008F1030008F1030008DF
:10013000F1030008000000000000000000000000C3
:10014000000000000000000000000000F1030008B3
:10015000F1030008F1030008F1030008F1030008AF
:10016000F1030008F1030008000000000000000097
:10017000000000000000000000000000000000007F
:1001800000000000F1030008000000000000000073
:10019000F103000800B583B000F04AFF384B394A3C
:1001A0001360394A1360394906E052F8041B43F8DA
:1001B000041B9842F9D86146354B994205D20A682A
:1001C0004B6801F10C0C8868F3E72E4B1A68314B31
:1001D0009A4200D0FEE72C4B1A682F4B9A42F9D175
:1001E000274B2E4A13602E4A13602E4A00E0024627
:1001F0002D4B9A4209D2104650F8083B516899425B
:10020000F5D9002243F8042BF9E7244B1B6813B9F6
:10021000234B1B6803B1FEE701F07EF9694601A894
:1002200000F014FE214C224BE41AA410002504E037
:100230001F4B53F8253098470135AC42F8DC1D4C74
:100240001D4BE41AA410002504E01B4B53F8253085
:1002500098470135AC42F8DC0099019801F092F919
:100260000546164C164BE41AA41004E0013C144B4E
:1002700053F824309847002CF8DC284600F0B8FDED
:10028000BABADECA0000002004020020F40300080D
:100290000C04000878563412325476980802002074
:1002A0006C2C00200C0400081C0400081C0400082E
:1002B0001C0400081C0400081C0400081C0400089E
:1002C0001C04000808B5FFF765FF00BEFEE71EF03E
:1002D000040F0CBFEFF30880EFF309807146414A29
:1002E00010472DE9F04182B004460D46124B5F6B7A
:1002F000D3F838809E6A1B6B13F0020F03D00E4BAD
:10030000DB6A002B0BDB0D4800F0DEFD0095434659
:100310003A463146204600F001FE00BEFEE74BF6AD
:10032000AB6100F075FE0028EDD0034B4FF00042AA
:10033000DA6202B0BDE8F08100ED00E0D873000899
:1003400000BEFEE71EF0040F0CBFEFF30880EFF3D2
:1003500009807146244A10472DE9F04182B00446D5
:100360000D46084B5F6BD3F838809E6A064800F054
:10037000ABFD009543463A463146204600F0CEFD9F
:1003800000BEFEE700ED00E0E87300081EF0040F79
:100390000CBFEFF30880EFF309807146134A104752
:1003A0002DE9F04182B004460D46084B5F6BD3F84F
:1003B00038809E6A064800F087FD009543463A461D
:1003C0003146204600F0AAFD00BEFEE700ED00E049
:1003D000F473000800BEFEE700BEFEE700BEFEE7C5
:1003E00070470000E302000859030008A103000859
:0403F00000BEFEE766
:1003F400A87900080000002008020020A87900085D
:10040400000000100000001008020020702C0020E2
:080414000000001000000010C0
:1004200010B504460E4B18784FF47A73B3FBF0F313
:100430000C4A1068B0FBF3F000F09CF868B90F2C80
:1004400001D901200AE0002221464FF0FF3000F0E0
:100450004BF8054B1C60002000E0012010BD00BFE0
:1004600004000020140000200800002008B50B4BF9
:100470001A6842F400721A601A6842F480621A60C4
:100480001A6842F480721A60032000F00FF80F20FF
:10049000FFF7C6FF01F036FA002008BD003C02401D
:1004A000014B1868704700BF0C02002010B50446CD
:1004B000C31E042B0FD80A4AD36823F4E0631B043D
:1004C0001B0C240204F4E064234343F0BF6343F4B1
:1004D0000033D36010BD9221024801F025F8EAE70D
:1004E00000ED00E00472000870B505460C461646A3
:1004F0000F2A25D80F2C28D81B4BDB68C3F3022307
:10050000C3F10701042928BF04211A1D062A21D995
:10051000033B4FF0FF3202FA01F124EA01049C4050
:1005200002FA03F326EA03063443002D14DB240108
:10053000E4B205F1604505F5614585F8004370BDFD
:10054000AA210A4800F0F0FFD4E7AB21074800F0E9
:10055000EBFFD1E70023DCE705F00F052401E4B24F
:10056000034B5C55EBE700BF00ED00E004720008B0
:1005700014ED00E00138B0F1807F0BD24FF0E023A2
:100580005861054AF02182F8231000209861072263
:100590001A6170470120704700ED00E010B5044675
:1005A000042800D040B9042C0CD04FF0E02213698D
:1005B00023F00403136110BD40F2C911054800F097
:1005C000B3FFF0E74FF0E022136943F00403136137
:1005D000F1E700BF04720008002800F0588270B5EF
:1005E00082B0044603680F2B39D8236813F0010F3B
:1005F0004DD063682BB1B3F5803F02D0B3F5A02F87
:1006000032D1804B9B6803F00C03042B36D07D4B1A
:100610009B6803F00C03082B2BD06368B3F5803F75
:100620005FD0B3F5A02F62D0764B1A6822F48032E7
:100630001A601A6822F480221A606368002B60D066
:10064000FFF72EFF05466F4B1B6813F4003F1ED1CA
:10065000FFF726FF401B6428F5D903201EE2E8219E
:10066000694800F061FFC0E7ED21674800F05CFFDA
:10067000C7E7644B5B6813F4800FCED0614B1B68F7
:1006800013F4003F03D06368002B00F0028223685C
:1006900013F0020F66D0E368012B41D823691F2BAA
:1006A00044D8584B9B6813F00C0F4AD0554B9B68AD
:1006B00003F00C03082B3FD0E368002B77D0534B9B
:1006C00001221A60FFF7ECFE05464E4B1B6813F043
:1006D000020F63D1FFF7E4FE401B0228F5D9032087
:1006E000DCE1484A136843F480331360A5E7454BC7
:1006F0001A6842F480221A601A6842F480321A6042
:100700009BE7FFF7CDFE05463E4B1B6813F4003F09
:10071000BDD0FFF7C5FE401B6428F5D90320BDE11D
:1007200040F21F11384800F0FFFEB7E74FF4907118
:10073000354800F0F9FEB4E7324B5B6813F4800FE4
:10074000BAD1304B1B6813F0020F03D0E368012BC2
:1007500040F0A1812B4A136823F0F803216943EA92
:10076000C1031360236813F0080F51D06369012B94
:100770002FD863699BB3254B0122C3F8802EFFF766
:100780008FFE05461F4B5B6F13F0020F40D1FFF742
:1007900087FE401B0228F5D903207FE1194A136820
:1007A00023F0F803216943EAC1031360DAE7174B2A
:1007B00000221A60FFF774FE0546124B1B6813F007
:1007C000020FCFD0FFF76CFE401B0228F5D90320A3
:1007D00064E14FF4B0710C4800F0A6FEC9E70B4B82
:1007E0000022C3F8802EFFF75BFE0546054B5B6FCA
:1007F00013F0020F0CD0FFF753FE401B0228F5D96F
:1008000003204BE1003802403872000800004742E4
:10081000236813F0040F7CD0A368012B01D9052BAA
:1008200038D1A34B1B6C13F0805F39D100230193A7
:100830009F4B1A6C42F080521A641B6C03F0805379
:100840000193019B01259B4B1B6813F4807F29D0EA
:10085000A368012B3AD0052B3ED0954B1A6F22F09E
:1008600001021A671A6F22F004021A67A368002BAC
:100870003CD0FFF715FE06468D4B1B6F13F0020FA1
:1008800045D1FFF70DFE801B41F288339842F3D922
:10089000032003E14FF4C671874800F045FEC0E72E
:1008A0000025D0E7834A136843F480731360FFF791
:1008B000F7FD06467F4B1B6813F4807FC8D1FFF716
:1008C000EFFD801B0228F5D90320E7E0784A136F7B
:1008D00043F001031367C9E7754B1A6F42F0040236
:1008E0001A671A6F42F001021A67BFE7FFF7D8FDD7
:1008F00006466F4B1B6F13F0020F08D0FFF7D0FDB9
:10090000801B41F288339842F3D90320C6E0002DC2
:100910003BD1A369022B3ED8A369002B00F0BD8018
:10092000634A926802F00C02082A00F09080022BC1
:1009300079D1E36913B1B3F5800F32D1236A3F2B2C
:1009400035D8636A323BB3F5BF7F36D8A36A022B32
:1009500005D0042B03D0062B01D0082B33D1E36A3A
:10096000023B0D2B35D8554B00221A66FFF798FD38
:1009700005464F4B1B6813F0007F30D0FFF790FD0A
:10098000401B0228F5D9032088E0494A136C23F064
:1009900080531364BDE740F2CF11474800F0C4FD17
:1009A000BAE74FF4EC71444800F0BEFDC6E740F2F0
:1009B000D911414800F0B8FDC3E74FF4ED713E484E
:1009C00000F0B2FDC2E740F2DB113B4800F0ACFDA5
:1009D000C5E74FF4EE71384800F0A6FDC3E7E369C0
:1009E000226A1343626A43EA8213A26A5208013AF6
:1009F00043EA0243E26A43EA02632D4A53602F4B03
:100A000001221A66FFF74CFD0446294B1B6813F0C0
:100A1000007F06D1FFF744FD001B0228F5D9032013
:100A20003CE000203AE0254B00221A66FFF738FD33
:100A300004461F4B1B6813F0007F06D0FFF730FD04
:100A4000001B0228F5D9032028E0002026E0012B16
:100A500026D0174B5B6803F48001E269914221D1F3
:100A600003F03F02216A8A421ED1616A47F6C072D2
:100A70001A408A421AD103F44032A16A8A421FD135
:100A800003F07063E26A93421CD1002006E001206B
:100A90007047012002E0012000E0002002B070BD9C
:100AA0000120FBE70120F9E70120F7E70120F5E746
:100AB00000380240007000403872000800004742D1
:100AC0000120EBE70120E9E708B52F4B9B6803F015
:100AD0000C03082B01D02D4808BD2B4B5A6802F09F
:100AE0003F025B6813F4800F2AD0274B5968C1F38B
:100AF000881C4FEA4C11B1EB0C006EEB0E0E4FEA66
:100B00008E1343EA90638101091A63EB0E03DB0045
:100B100043EA5173C90011EB0C0C43F10003990235
:100B200000234FEA8C2041EA9C5103F09FFB164BB7
:100B30005B68C3F3014301335B00B0FBF3F0CBE729
:100B4000114B5968C1F3881C4FEA4C11B1EB0C00F2
:100B50006EEB0E0E4FEA8E1343EA90638101091A81
:100B600063EB0E03DB0043EA5173C90011EB0C0C7D
:100B700043F10003990200234FEA8C2041EA9C5183
:100B800003F074FBD3E700BF003802400024F400F8
:100B9000002800F0F78070B50D4604460368013B5D
:100BA0000E2B6BD8072D6FD87A4B1B6803F00F0301
:100BB000AB4208D2EBB2774A1370136803F00F030D
:100BC000AB4240F0E180236813F0020F29D013F00C
:100BD000040F04D0704A936843F4E0539360236891
:100BE00013F0080F04D06C4A936843F46043936099
:100BF000A3687BB1802B0DD0902B0BD0A02B09D0FC
:100C0000B02B07D0C02B05D0D02B03D0E02B01D0C8
:100C1000F02B3FD1604A936823F0F003A1680B43A7
:100C20009360236813F0010F4ED06368032B37D80D
:100C30006368012B3AD09A1E012A3ED9564A12689F
:100C400012F0020F00F0A28053498A6822F00302DA
:100C500013438B60FFF724FC06464F4B9B6803F061
:100C60000C036268B3EB820F2ED0FFF719FC801BD8
:100C700041F288339842F0D9032076E040F25121C6
:100C8000464800F051FC8DE740F25221434800F005
:100C90004BFC89E740F27521404800F045FCB9E77C
:100CA0004FF41F713D4800F03FFCC1E73A4A12681B
:100CB00012F4003FC8D1012057E0374A126812F001
:100CC000007FC1D1012050E0324B1B6803F00F03BD
:100CD000AB4207D9EAB22F4B1A701B6803F00F031F
:100CE000AB4255D1236813F0040F14D0E3685BB115
:100CF000B3F5805F08D0B3F5A05F05D0B3F5C05F52
:100D000002D0B3F5E05F31D1234A936823F4E05376
:100D1000E1680B439360236813F0080F15D0236933
:100D20005BB1B3F5805F08D0B3F5A05F05D0B3F534
:100D3000C05F02D0B3F5E05F1ED1174A936823F479
:100D40006043216943EAC1039360FFF7BDFE124B84
:100D50009B68C3F30313124AD35CD840114B18604D
:100D6000114B1868FFF75CFB002070BD40F2BA2100
:100D70000A4800F0D9FBC7E740F2C121074800F05C
:100D8000D3FBDAE7012070470120EEE70120ECE712
:100D90000120EAE7003C02400038024038720008B7
:100DA000047400081400002008000020014B18689B
:100DB000704700BF1400002000B583B08C46194670
:100DC000134652B1074A53B101930092634602465B
:100DD000054800F079F800F00DF8044AF3E7034BFA
:100DE000F2E700BF687200087872000840740008DB
:100DF000FEE7000008B5034800F080F80120FFF787
:100E0000F7FF00BFA872000808B503460C4A126835
:100E10005AB10B4A1068033323F003030344094A11
:100E2000934206D8064A136008BD054A0649116078
:100E3000EFE703F09DFB0C2303604FF0FF30F3E777
:100E40001002002000FC0020702C00200123036011
:100E5000014B0B60704700BF0C0000202DE9F043F0
:100E600085B004460F4643563BBB04252846214621
:100E7000ABBE0446384605B0BDE8F08314F901CB9B
:100E800003F110026A4402F810CC0133AB42F5D3EF
:100E900010336B44002203F8102C4FF00408E9468D
:100EA00040464946ABBE8046761B002EE2D0354612
:100EB000102E28BF10250023E8E70E46F5E708B5F9
:100EC000FFF7CCFF08BD00000FB400B583B004AB42
:100ED00053F8042B01938021074804F00FFB0028EE
:100EE00004DC03B05DF804EB04B07047014602482F
:100EF000FFF7E5FFF5E700BF1C02002010B5044630
:100F000003F084FC01462046FFF7D9FF0121024887
:100F1000FFF7D5FF10BD00BF54730008F8B50446B5
:100F20000D4617461E462748FFF7CEFF2168264884
:100F3000FFF7CAFF61682548FFF7C6FFA16824488C
:100F4000FFF7C2FFE1682348FFF7BEFF216922488F
:100F5000FFF7BAFF61692148FFF7B6FFA169204892
:100F6000FFF7B2FFE1691F48FFF7AEFF1E48FFF72A
:100F7000ABFF29461D48FFF7A7FF1D4CE16A1D483E
:100F8000FFF7A2FF216B1C48FFF79EFFE16B1B4898
:100F9000FFF79AFF15F0800F0AD115F4004F0CD11E
:100FA0001748FFF791FF06991648FFF78DFFF8BD28
:100FB00039461548FFF788FFEFE731461348FFF73A
:100FC00083FFEDE7BC720008CC720008DC720008F9
:100FD000EC720008FC7200080C7300081C73000817
:100FE0002C7300083C7300084C7300085873000809
:100FF00000ED00E06873000878730008887300084B
:10100000B8730008C073000898730008A87300083C
:1010100083691A888A4201D0002070470268033A27
:10102000012A01D9002070470233836101207047F3
:1010300008B500F00FF8054B054A9A60D3F88820F0
:1010400042F47002C3F8882008BD00BF00ED00E044
:1010500000000008054BD3F8882042F47002C3F862
:1010600088204FF000629A60704700BF00ED00E0FA
:10107000224B9B6803F00C03042B14D0082B16D0D2
:101080001BB11F4B1F4A1A6002E01D4B1D4A1A601C
:101090001A4B9B68C3F303131B4AD15C184A1368AD
:1010A000CB4013607047164B164A1A60F0E7134B9B
:1010B00059685A6802F03F0211F4800F13D0114BA7
:1010C000B3FBF2F30D4A5268C2F3881202FB03F33A
:1010D0000A4A5268C2F3014201325200B3FBF2F3F2
:1010E000074A1360D4E7074BB3FBF2F3034A526895
:1010F000C2F3881202FB03F3EAE700BF00380240A4
:10110000140000200024F40004740008104B40F682
:101110000B029A60DA686FF3CF32DA60DA686FF345
:101120000C32DA60DA686FF38A22DA60DA6842F049
:101130000802DA60DA6842F00402DA601A6922F41E
:1011400080521A611A6922F400521A61704700BF76
:101150000010014070470000044B1B6813F0200F83
:10116000FAD0024B5868C0B2704700BF001001406F
:1011700008B5024B1B68984708BD00BF9C020020C1
:10118000012813D0022821D000B17047174B1868EE
:1011900049004FF0030C0CFA01FC20EA0C00186027
:1011A000186802FA01F1014319607047104B186882
:1011B00049004FF0030C0CFA01FC20EA0C00186007
:1011C000186802FA01F1014319607047094B186869
:1011D00049004FF0030C0CFA01FC20EA0C001860E7
:1011E000186802FA01F101431960CEE700000240DD
:1011F000000402400008024012B1012A21D07047C9
:1012000001280CD0022813D000B170471C48436954
:10121000012202FA01F123EA0101416170471948F4
:101220004369012202FA01F123EA01014161704799
:1012300015484369012202FA01F123EA01014161E3
:10124000704701280BD0022811D00028DDD10C48AE
:101250004369012202FA01F11943416170470948CB
:101260004369012202FA01F11943416170470648BE
:101270004369012202FA01F119434161C5E700BF48
:1012800000000240000402400008024090B90D4AEC
:10129000936823F0020393600A4B5A6822F040726D
:1012A0005A605A6842EA016159609A6842F0010244
:1012B0009A6070470128EFD1024A936843F0020315
:1012C0009360E9E7002001400A4B1B88034113F0BB
:1012D000010F0DD0084B5A6B22F01F025A635A6B54
:1012E00000F01F00104358639A6842F080429A60F1
:1012F000704700BF1800002000200140024658B18E
:10130000064B1B6813F0020FFAD0044BD3ED137A8F
:10131000F8EE677AC2ED007A704700BF0020014006
:101320000F2806D8012303FA00F0024B1A88104355
:1013300018807047180000200F2806D8012383402A
:10134000024A108820EA030010807047180000202D
:1013500008B5012202210020FFF712FF08BD08B5E1
:10136000012202210020FFF747FF08BD08B5002237
:1013700002211046FFF740FF08BD08B500210846CE
:10138000FFF784FF08BD0000114B1B7813B9BFEEB7
:10139000000A704700B583B0002301930020FFF7D7
:1013A00093FF01A8FFF7AAFF019802F007FE06A32A
:1013B000D3E9002305F0BEFC02F008FF00EE100A9E
:1013C00003B05DF804FB00BF7B14AE47E17A843FB5
:1013D000A002002008B50020FFF7A2FF014B012268
:1013E0001A7008BDA002002008B50020FFF7A4FF76
:1013F000014B00221A7008BDA002002008B5002190
:101400000846FFF743FF08BD114B1B7813B9BFEE29
:10141000000A704700B583B0002301930120FFF755
:1014200053FF01A8FFF76AFF019802F0C7FD06A36A
:10143000D3E9002305F07EFC02F0C8FE00EE100A9E
:1014400003B05DF804FB00BFC3F5285C8FC2E93F21
:10145000A102002008B50120FFF762FF014B012225
:101460001A7008BDA102002008B50120FFF764FF33
:10147000014B00221A7008BDA102002070B594B083
:1014800000240194214B1A6C42F080521A641B6CA8
:1014900003F080530193019B02941D4B1A6842F4A0
:1014A00040421A601B6803F440430293029B0123ED
:1014B00008934FF4803309934FF480030F93102364
:1014C00010934FF4A87311930426129607231393D5
:1014D00002250E9508A8FFF77FF80F2303930495C4
:1014E00005944FF4805306930794294603A8FFF709
:1014F0004FFBFFF75BFC074BA3FB00308009FFF7B6
:1015000039F83046FFF74AF814B070BD0038024091
:1015100000700040D34D621008B5FEF7A7FFFFF73B
:10152000ADFFFFF7A5FD08BD08B50A460146024814
:10153000FFF7CAFCFEE700BF1474000810B5A0B0A6
:1015400000240DE004F180036B44002403F8804C78
:1015500023464FF0FF3269460948006801F0E3FA7C
:10156000FFF7FAFD0A28EDD07E2CEBD8631C04F1BE
:1015700080020DEB020404F8800CDCB2F0E700BF3F
:10158000A402002000B583B0FFF7F7FEFFF736FF97
:10159000FFF7DEFEFFF7BAFDFFF71CFFFFF75AFF6C
:1015A00000228021052001F093FA1C4B18600028CE
:1015B00032D0002401940225009523464FF4807216
:1015C0001749184801F00EFE0194009523464FF488
:1015D00080721549154801F005FE0194012500951A
:1015E00023464FF480721249124801F0FBFD01942A
:1015F000009523464FF480720F49104801F0F2FD28
:101600000194009523464FF480720D490D4801F076
:10161000E9FD01F01DFEFEE7FEE700BFA402002089
:10162000447400083D150008507400086D16000849
:1016300060740008FD17000870740008691800083D
:101640007C740008D518000800B5A3B00B460092C2
:101650000246054902A803F0AFF802A8FFF77AFD99
:1016600023B05DF804FB00BF8C740008F0B5A3B094
:101670001BE0514A00215148FFF7E6FF15E0FFF754
:10168000A9FE4F4A80214F48FFF7DEFF0AE04E498E
:10169000286903F0B1F8002851D17B69802B3ED036
:1016A000812B44D0204600F0D3FB4FF0FF3202A93B
:1016B000464B186801F0FBFA0128F6D102A800F0A9
:1016C00005FE04460028D4D0414900F005FE054639
:1016D0004049204600F000FE07463F49204600F002
:1016E000FBFD0646284600F005FE0028DAD0384605
:1016F00000F0F7FD0028D5D03849286903F07CF8C0
:101700000028C4D17B69802BB9D0812BCAD1FFF7C7
:10171000A1FE2B4A81212B48FFF796FFC2E7FFF776
:1017200063FE274A80212748FFF78EFFBAE7FFF7BD
:101730009BFE234A81212348FFF786FFB2E7284911
:10174000286903F059F810B97B69502B14D025494A
:10175000286903F051F80028A4D17B69502BA1D14E
:10176000214B1A78214901A803F026F801AA50213B
:101770001F48FFF769FF95E7304600F0BBFD0028E2
:10178000E5D01C49306903F037F850B9FFF7E7FDA1
:10179000154B01221A70174A50211548FFF754FFC4
:1017A00080E7FFF7E3FD104B00221A70124A502128
:1017B0000F48FFF749FF75E7BC740008CC740008B8
:1017C000F0740008F8740008FC740008A4020020FB
:1017D000D4740008DC740008E4740008EC74000899
:1017E0000075000810750008AC0200201475000890
:1017F00008750008047500080C75000800B585B070
:1018000019E010EE100A02F0D9FB41EC100B104960
:10181000684602F0D1FF6A4680210E48FFF714FFA8
:101820000D4B18780D4B03FB00F00D4BA3FB003064
:10183000800901F0C3FEFFF7A7FD0A4B83ED000A04
:10184000FFEE007AB4EE670AF1EE10FAD9D1E7E7BD
:1018500018750008F87400081B00002040420F00B3
:10186000D34D6210B002002000B585B019E010EE33
:10187000100A02F0A3FB41EC100B1049684602F07D
:101880009BFF6A4681210E48FFF7DEFE0D4B18785C
:101890000D4B03FB00F00D4BA3FB0030800901F062
:1018A0008DFEFFF7B1FD0A4B83ED000AFFEE007AD3
:1018B000B4EE670AF1EE10FAD9D1E7E7187500081F
:1018C000F87400081A00002040420F00D34D621047
:1018D000A802002000B583B0074B1A78074901A879
:1018E00002F06AFF01AA50210548FFF7ADFE42F25F
:1018F000107001F063FEEFE7AC02002014750008E1
:10190000087500087047000020B3844621B3884260
:1019100024D000B50DE096460878124BC35603F06C
:101920000303012B10D0864510D1CAB10CF1010C74
:1019300001319CF800200B4BD35603F00303012B1D
:10194000E9D102F1200EE7E72030ECE7AEEB000032
:101950005DF804FB012070470120704700207047AC
:101960000020F5E7697500082E20704784460023A3
:1019700018460AE0A1F14102D2B2052A11D8084462
:101980003738022B00D800010133032B11D81CF883
:101990000310A1F13002D2B2092AEBD80844303842
:1019A000EFE7A1F16102D2B2052A03D80844573803
:1019B000E7E7704700207047F8B50B1A052B60DD8C
:1019C00006460F4615460230FFF7D0FF0446A0F545
:1019D0005C43B3F5806F56D3A0F55843B3F5806FE1
:1019E0001CD2B11D7F1A052F4FDDB3795C2B4ED170
:1019F000F379752B4DD106F10800FFF7B7FFA0F57D
:101A00005C43B3F5806F46D2254B03EA8424C0F3D0
:101A10000900204300F580340C2000E006207F2CD4
:101A20000BD9B4F5006F0DD3B4F5803F0DD3B4F5E9
:101A3000881F32D2F027042601E000270126731EFA
:101A4000DBB20EE0C0270226F9E7E0270326F6E71F
:101A500004F03F012A6841F08001D154A409013B00
:101A6000DBB2002BF4D1012E06D92B683C431C704D
:101A70002B6833442B6005E02B6804F07F041C7056
:101A8000F6E70020F8BD0020FCE70020FAE7002080
:101A9000F8E70020F6E70020F4E70020F2E700BFB7
:101AA00000FC0F002DE9F04182B00E460F688B68F4
:101AB0005D1C3D440022019207EB030CFB5C222BD2
:101AC00040F0858080462C46104600E00134E11B42
:101AD000726891420AD22378222B07D05C2BF5D171
:101AE0000134E31B934272D20130EFE791426ED290
:101AF0002378222B6BD1A4EB0C0CACEB00003369E8
:101B000001309847074600285DD001902BE0631B09
:101B1000002B58DD6B78752B55D85C2B11D35C3BB3
:101B2000192B50D8DFE803F0114F4F4F4F4F184F8C
:101B30004F4F2B4F4F4F4F4F4F4F324F4F4F394F0C
:101B40004047222B01D02F2B3DD1019B5A1C0192E3
:101B50006A781A70022305E0019B5A1C0192082240
:101B60001A7002231D44A54239D22B785C2BCED0AB
:101B7000019B5A1C019215F8012B1A70F3E7019B87
:101B80005A1C01920C221A700223EBE7019B5A1C8B
:101B900001920A221A700223E4E7019B5A1C019267
:101BA0000D221A700223DDE7019B5A1C01920922C3
:101BB0001A700223D6E701AA21462846FFF7FCFE49
:101BC00003460028CED117B1736938469847ADB1A6
:101BD0003368ED1AB560002002B0BDE8F081019BCA
:101BE00000221A701023C8F80C30C8F8107033683F
:101BF000E41AB4600134B4600120EDE70020EBE7A3
:101C00000246D8B110B40468B4B183684068834216
:101C100002D30AE0013393609368984202D9E15CF1
:101C20002029F7D99368984203D010465DF8044BF9
:101C30007047013B9360F8E72246F6E7704710B51E
:101C4000036828209847044618B12822002102F092
:101C5000B3FC204610BD000038B5044638B1056815
:101C600095B1806890B9031D6268934201D3204604
:101C700038BD03220649284402F0D0FD0028F6D1E1
:101C8000A3680333A360F2E72C46F0E70024EEE7F5
:101C900020750008000000002DE9F04393B00546D0
:101CA0000C4600231193FFF75FFE002C00F09D808F
:101CB0002368002B00F09B80002334E0652A2CD0A1
:101CC00048336B44002203F8442C0DF1040911A998
:101CD000484603F0DBFB57EC106BDDF84480C84549
:101CE00000F0878085ED060B44A3D3E9002310EEB6
:101CF000100A394602F02EFA002865D06FF0004332
:101D00006B610823EB6001ABA8EB0308A3684344B5
:101D1000A360012013B0BDE8F08303F148016944DA
:101D200001F8442C01333E2BCAD8A2681A446168DA
:101D30008A42C5D221688A5C452ABFD82B2ABFD3E4
:101D4000A2F12B011A29BBD801A656F821F000BF39
:101D50001B1D0008C11C00081B1D0008BD1D00083C
:101D6000C11C00081B1D00081B1D00081B1D0008CE
:101D70001B1D00081B1D00081B1D00081B1D000863
:101D80001B1D00081B1D00081B1D0008C11C0008AE
:101D9000C11C0008C11C0008C11C0008C11C0008AF
:101DA000C11C0008C11C0008C11C0008C11C00089F
:101DB000C11C0008C11C00081B1D000803F14802DB
:101DC0006A4402F8440CADE700220B4B304639461A
:101DD00002F0B6F918B14FF000436B6191E730465D
:101DE000394602F0CBF968618BE7002092E70020CA
:101DF00090E700208EE700BF0000E0C10000C0FFB8
:101E0000FFFFDF4138B50446C8B10D46C9B184684B
:101E10000AB90AE024687CB1216A69B1284602F057
:101E2000EBFC0028F6D107E024682CB1216A284693
:101E3000FFF76AFD0028F7D12CB1236A2BB12046A9
:101E400038BD0C46FBE70024F9E70024F7E7000063
:101E500038B504461AE0E36813F4807F06D12069A0
:101E600020B1114B5B68984700232361E36813F4AA
:101E7000007F06D1206A20B10B4B5B689847002396
:101E80002362094B5B68204698472C4654B125686D
:101E9000E36813F4807FDED1A0680028DBD0FFF771
:101EA000D7FFD8E738BD00BF1C000020CB68B3F5D2
:101EB0007A7F80F08E802DE9F04106460C46013392
:101EC000CB60002900F087808B684A68934280F0DD
:101ED00084800A68D25C7B2A02D00020BDE8F081B1
:101EE00001338B600846FFF78BFEA368626893425C
:101EF00003D22268D35C7D2B5CD0A36862689342D6
:101F000004D2013BA36000252F4637E0013BA360CC
:101F10000020E3E70746A36801336268934243D297
:101F2000A3602046FFF76CFE21462846FFF7BAFD66
:101F3000002839D02046FFF763FE2B692B6200236F
:101F40002B61A368626893422ED22268D25C3A2A3F
:101F50002AD10133A3602046FFF752FE21462846CE
:101F600000F040F800B32046FFF74AFEA36862681D
:101F7000934211D22268D35C2C2B0DD1A84604F1D8
:101F80001000FFF75CFE054670B1002FC2D0C8F804
:101F90000000C0F80480BEE7A3686268934203D2E1
:101FA0002268D35C7D2B07D0CFB13846FFF750FFB6
:101FB000002093E700252F46E368013BE36007B16B
:101FC0007D604023F360B760A3680133A360012004
:101FD00084E700207047002080E700207EE7002093
:101FE0007CE7000000297AD038B505460C460B681E
:101FF000002B76D08868011D626891422FD9A368B2
:10200000591D6268914238D9A368191D62689142CE
:1020100041D9A3686268934203D22268D35C222B21
:1020200049D0A3686268934207D22268D35C2D2B03
:1020300046D0303BDBB2092B42D9A3686268934299
:1020400003D22268D35C5B2B3FD0A36862689342C3
:1020500049D22268D35C7B2B3CD0002044E0042290
:102060002249184402F0DAFB0028C8D10423EB60AF
:10207000A3680433A360012036E0206805221C49D0
:10208000184402F0CBFB0028BED10120E860A26812
:102090000532A26028E0206804221649184402F0A4
:1020A000BDFB0028B5D10223EB6001206861A26866
:1020B0000432A26018E021462846FFF7F3FC13E043
:1020C00021462846FFF7E8FD0EE02146284600F0AD
:1020D00013F809E021462846FFF7E8FE04E0002057
:1020E0007047002000E0002038BD00BF24750008C4
:1020F0004075000848750008CB68B3F57A7F6DD24B
:102100002DE9F04106460C460133CB600A688B6826
:10211000D25C5B2A02D00020BDE8F08101338B60E5
:102120000846FFF76DFD3CB1A3686268934203D295
:102130002268D35C5D2B48D044B1A36862689342A7
:1021400004D2013BA36000252F461EE0A368013B9B
:10215000A3600020E0E7C8F80000C0F80480A3688E
:102160000133A3602046FFF74BFD21462846FFF7C9
:1021700039FF68B32046FFF743FDA36862689342C6
:102180000ED22268D35C2C2B0AD1A84604F1100091
:10219000FFF755FD0546D8B1002FDCD10746DEE735
:1021A000A3686268934213D22268D35C5D2B0FD17F
:1021B000E368013BE36007B17D602023F360B76013
:1021C000A3680133A3600120A6E700252F46EFE7AF
:1021D00037B13846FFF73CFE00209DE700207047EE
:1021E000002099E7F0B58BB015461E4600240394F5
:1021F0000494059406940794089409942A4B1C604F
:102200005C60044600B1B9B9002C4AD001940023A7
:102210000293059A049B9A423ED2029215B1029B08
:1022200023442B60204B01AA92E8030083E80300BB
:10223000002738460BB0F0BD039004911B4B93E888
:1022400007000AAF07E907001846FFF7F8FC074642
:10225000E0B103A8FFF700FDFFF7D2FC01463846C6
:10226000FFF7C0FE90B136B9002DE2D0039B059A6E
:1022700013442B60DDE703A8FFF7C2FC059B049A1B
:10228000934203D2039AD35C002BEDD0002FBBD036
:102290003846FFF7DDFDB7E7002BBFD0013B0293C7
:1022A000BCE72746C5E700BFB40200201C000020A1
:1022B00070B5044648B10D46164602F0A7FA3346FB
:1022C0002A46411C2046FFF78DFF70BD08B500224D
:1022D0001146FFF7EDFF08BD08B50122FFF792FD9B
:1022E00008BD28B1007B082814BF002001207047DA
:1022F0000020704728B1007B102814BF0020012067
:102300007047002070470000104A12F0070F1AD0E3
:10231000D11D21F00701C1F5205313440A460C4892
:102320000260002141601344083B23F00703094881
:10233000036059601960991A51601360064B196067
:10234000064B196070474FF42053E8E7C0020020A5
:10235000D02A0020BC020020C42A0020C02A00206D
:10236000164B1A461B688342FBD3516802EB010CE3
:10237000844509D0416800EB010C634509D0036036
:10238000904219D010607047406801445160104677
:10239000F0E710B40A4C2468A3420BD05B681944E0
:1023A000416013681B680360904200D010605DF8C4
:1023B000044B70470460F7E7704700BFD02A002045
:1023C000BC02002070B5054600F088FF364B1B6844
:1023D0009BB13DB105F00703C3F11003DA43AA42F4
:1023E0000ED31D44002D47DB002D47D02F4B1B681B
:1023F000AB4252D32E4A146806E0FFF785FFE8E7A8
:102400000025EFE722461C466368AB4202D22368F0
:10241000002BF7D1244B1B68A34240D01668083626
:102420002368136063685B1B102B10D9601910F0D0
:10243000070F08D04FF0500383F31188BFF36F8F5D
:10244000BFF34F8FFEE743606560FFF789FF626867
:1024500016490B689B1A0B60164909688B4201D21A
:1024600014490B6042F00042626000232360124A6C
:1024700013680133136002E0002600E0002600F03C
:10248000F7FF16F0070F0CD04FF0500383F31188BD
:10249000BFF36F8FBFF34F8FFEE70026EFE70026F5
:1024A000EDE7304670BD00BFBC020020C02A00200E
:1024B000D02A0020C42A0020C82A0020A8B338B59A
:1024C0000446A0F1080550F8043C002B08DB4FF04F
:1024D000500383F31188BFF36F8FBFF34F8FFEE775
:1024E00050F8082C42B14FF0500383F31188BFF32A
:1024F0006F8FBFF34F8FFEE7002B00DB38BD23F05B
:10250000004340F8043C00F0E9FE54F8041C074A7C
:1025100013680B4413602846FFF722FF044A136830
:102520000133136000F0A4FFE8E77047C02A0020E1
:10253000CC2A002082B0002301930D4B1B68B3F11D
:10254000FF3F08D04FF0500383F31188BFF36F8F24
:10255000BFF34F8FFEE74FF0500383F31188BFF3B3
:102560006F8FBFF34F8F019B002BFCD002B07047E1
:102570002800002008480068006880F308884FF0B1
:10258000000080F3148862B661B6BFF34F8FBFF3CB
:102590006F8F00DF00BF000008ED00E0DFF80C00E7
:1025A000016841F4700101607047000088ED00E0AF
:1025B0004FF0807340F8043C21F0010140F8081C02
:1025C000054B40F80C3C40F8202C6FF0020340F81B
:1025D000243C4438704700BF352500080000000047
:1025E000074B19680868B0E8F04F80F30988BFF31B
:1025F0006F8F4FF0000080F311887047AFF30080B9
:10260000202B00204FF0500383F31188BFF36F8F0E
:10261000BFF34F8F0B4A136801331360012B00D0B7
:1026200070474FF0E023D3F8043D13F0FF0FF7D0CD
:102630004FF0500383F31188BFF36F8FBFF34F8FB9
:10264000FEE700BF28000020094B1B6843B94FF08C
:10265000500383F31188BFF36F8FBFF34F8FFEE7F3
:10266000013B034A13600BB983F31188704700BF25
:102670002800002000000000000000000000000012
:10268000EFF30980BFF36F8F154B1A681EF0100F20
:1026900008BF20ED108A20E9F04F10602DE90900F5
:1026A0004FF0500080F31188BFF34F8FBFF36F8F4F
:1026B00000F0AAFF4FF0000080F3118809BC1968F0
:1026C0000868B0E8F04F1EF0100F08BFB0EC108A99
:1026D00080F30988BFF36F8F704700BFAFF30080AE
:1026E000202B002008B54FF0500383F31188BFF36F
:1026F0006F8FBFF34F8F00F0FFFD28B14FF0E02345
:102700004FF08052C3F8042D002383F3118808BDD5
:102710004FF0E022002313619361054B1B680549CC
:10272000A1FB03139B09013B53610723136170470E
:1027300014000020D34D62104FF0E023D3F8002D99
:102740003D4B9A421CD04FF0E023D3F8002D3B4B79
:102750009A421ED030B583B0394B1A78D2B201926A
:10276000FF221A701B78DBB28DF803309DF803301E
:1027700003F05003334A1370334B07221A601BE0F7
:102780004FF0500383F31188BFF36F8FBFF34F8F68
:10279000FEE74FF0500383F31188BFF36F8FBFF351
:1027A0004F8FFEE7284A1368013B13609DF8033002
:1027B0005B00DBB28DF803309DF8033013F0800F1F
:1027C000F0D1214B1B68032B08D04FF0500383F34B
:1027D0001188BFF36F8FBFF34F8FFEE71B021A4ABA
:1027E000136003F4E0631360019BDBB2144A1370BF
:1027F0004FF0E024D4F8203D43F47003C4F8203DAA
:10280000D4F8203D43F07043C4F8203DFFF780FF2B
:1028100000250E4B1D60FFF7C1FED4F8343F43F096
:102820004043C4F8343FFFF7A5FE00F0EDFEFFF78C
:1028300081FE284603B030BD71C20F4170C20F4106
:1028400000E400E0D82A0020DC2A00202800002034
:1028500000F1080343604FF0FF328260C360036100
:1028600000230360704700230361704730B40D6894
:10287000B5F1FF3F11D000F108031C465B681A68F0
:10288000AA42FAD963684B6099608C606160086104
:1028900003680133036030BC70470469F2E70369E1
:1028A000416882688A60416851605A68824206D0F5
:1028B000002202611A68013A1A601868704782683B
:1028C0005A60F5E710B50446FFF79CFEA26BE36B78
:1028D0009A4204D00024FFF7B7FE204610BD012421
:1028E000F9E710B50446FFF78DFEA36B23B9012469
:1028F000FFF7AAFE204610BD0024F9E770B5044694
:102900001546866B026C5AB903681BB1002001366C
:10291000A66370BD806800F0E3FF0023A360F6E7C4
:102920006DB9406801F03AFE226C6368134463603D
:10293000A268934219D3236863602846E7E7C0681A
:1029400001F02CFE226C5142E3689B1AE36022687E
:10295000934202D2A3680B44E360022D01D0002011
:10296000D5E726B1013E0020D1E72846CFE7002079
:10297000CDE70346026C6AB110B50846D968114428
:10298000D9609C68A14201D31968D960D96801F067
:1029900005FE10BD704738B50546FFF733FE95F8C4
:1029A000454064B201E0013C64B2002C0ADD6B6A70
:1029B00043B105F1240000F0B5FE0028F3D000F08B
:1029C00079FFF0E7FF2385F84530FFF73DFEFFF77D
:1029D00019FE95F8444064B201E0013C64B2002C59
:1029E0000ADD2B6943B105F1100000F09BFE0028C1
:1029F000F3D000F05FFFF0E7FF2385F84430FFF7E6
:102A000023FE38BD38B590B10D460446C36B2BB1DB
:102A1000026C0021A3FB022393B999B14FF050033C
:102A200083F31188BFF36F8FBFF34F8FFEE74FF033
:102A3000500383F31188BFF36F8FBFF34F8FFEE70F
:102A40000121EAE7FFF7DEFD2368E26B216C01FB61
:102A50000230A0600020A0636360013A02FB0133F2
:102A6000E360FF2384F8443084F84530B5B9236926
:102A70001BB9FFF7E9FD012038BD04F1100000F09B
:102A800051FE0028F5D04FF0E0234FF08052C3F8FC
:102A9000042DBFF34F8FBFF36F8FEAE704F11000EF
:102AA000FFF7D6FE04F12400FFF7D2FEE1E738B5C8
:102AB0001D46049C0B4649B92460E0632364012150
:102AC0002046FFF79FFF84F84C5038BD2260F4E7A2
:102AD000F0B583B060B10C46174605460023A0FB55
:102AE000041272B923B904FB05F010F1510F0AD991
:102AF0004FF0500383F31188BFF36F8FBFF34F8FF5
:102B0000FEE70123EEE75030FFF75CFC064638B1E4
:102B100000903B4600F1500221462846FFF7C7FFD0
:102B2000304603B0F0BDF0B585B0019288B10F46D4
:102B30001D460446B1B1022D20D1E36B012B1DD0FF
:102B40004FF0500383F31188BFF36F8FBFF34F8FA4
:102B5000FEE74FF0500383F31188BFF36F8FBFF38D
:102B60004F8FFEE7036C002BE5D04FF0500383F34B
:102B70001188BFF36F8FBFF34F8FFEE700F0A0FE09
:102B8000064658B9019B002B48D04FF0500383F301
:102B90001188BFF36F8FBFF34F8FFEE700263DE034
:102BA0002A4639462046FFF7A9FE636A7BB948B139
:102BB0004FF0E0234FF08052C3F8042DBFF34F8F46
:102BC000BFF36F8FFFF740FD012005B0F0BD04F1AA
:102BD000240000F0A7FD0028F4D04FF0E0234FF0D0
:102BE0008052C3F8042DBFF34F8FBFF36F8FE9E717
:102BF000FFF72AFD0020E8E702A800F00BFE0126FF
:102C000019E0002384F8443021E0002384F84530A3
:102C100023E02046FFF7BFFE00F02AFCFFF7F2FC9E
:102C2000A26BE36B9A42BBD3022DB9D0019B002B60
:102C3000DED0002EE0D0FFF707FD00F04FFBFFF7DE
:102C4000E1FC94F8442052B2B2F1FF3FD9D094F89D
:102C5000452052B2B2F1FF3FD7D0FFF7F5FC01A9F2
:102C600002A800F0E3FDD8B92046FFF72BFE0028AC
:102C7000CFD0019904F1100000F012FD2046FFF7BB
:102C80008AFE00F0F5FB0028C8D14FF0E0234FF09A
:102C90008052C3F8042DBFF34F8FBFF36F8FBDE792
:102CA0002046FFF778FE00F0E3FB00208DE7F0B54B
:102CB00085B0019290B10F460446C1B100F000FE0C
:102CC000064600BB019B002B5ED04FF0500383F300
:102CD0001188BFF36F8FBFF34F8FFEE74FF05003A4
:102CE00083F31188BFF36F8FBFF34F8FFEE7036C41
:102CF000002BE3D04FF0500383F31188BFF36F8FA5
:102D0000BFF34F8FFEE700263EE039462046FFF72F
:102D100030FE013DA563236923B9FFF795FC01202F
:102D200005B0F0BD04F1100000F0FCFC0028F4D068
:102D30004FF0E0234FF08052C3F8042DBFF34F8FC4
:102D4000BFF36F8FE9E7FFF77FFC0020E8E702A8F9
:102D500000F060FD012621E0002384F8443029E0E2
:102D6000002384F845302BE02046FFF714FE00F0E6
:102D70007FFB09E02046FFF70EFE00F079FB2046BE
:102D8000FFF7AFFD00283FD1FFF73CFCA56B002DFE
:102D9000BBD1019B002BD6D0002ED8D0FFF754FC1E
:102DA00000F09CFAFFF72EFC94F844305BB2B3F1CC
:102DB000FF3FD1D094F845305BB2B3F1FF3FCFD0A5
:102DC000FFF742FC01A902A800F030FD0028D1D194
:102DD0002046FFF786FD0028C6D0019904F12400A3
:102DE00000F05EFC2046FFF7D6FD00F041FB002816
:102DF000CAD14FF0E0234FF08052C3F8042DBFF347
:102E00004F8FBFF36F8FBFE7002089E730B110B459
:102E10000C4601468CB10020034612E04FF05003EF
:102E200083F31188BFF36F8FBFF34F8FFEE70E4818
:102E300000EBC30008B1046041605DF8044B7047CB
:102E40000133072BF6D8084A02EBC30252688A42C4
:102E5000EDD00028F4D1044A52F83320002AEFD1F3
:102E6000014800EBC300EBE7E02A002070B5044600
:102E70000D461646FFF7C6FB94F844305BB2B3F13B
:102E8000FF3F0DD094F845305BB2B3F1FF3F0BD05C
:102E9000FFF7DAFBA36B5BB12046FFF77CFD70BD4B
:102EA000002384F84430EDE7002384F84530EFE751
:102EB0003246294604F1240000F00AFCECE7000049
:102EC000074B1B681B6823B9064B4FF0FF321A6093
:102ED0007047034B1B68DB681A68024B1A60704727
:102EE000242B0020D02B002010B50446006BFFF7E8
:102EF000E5FA2046FFF7E2FA10BD2DE9F8438046D7
:102F00000C4616469946089F0A9D9200A521286BFB
:102F100001F052FB2A6B06F18043013B02EB830375
:102F200023F007066CB10022092A07D8A156AB1876
:102F300083F83410A15609B10132F5E7002385F872
:102F40003D30042F08D94FF0500383F31188BFF3AD
:102F50006F8FBFF34F8FFEE7EF62AF64281DFFF75F
:102F600082FC05F11800FFF77EFC2D61C7F1050713
:102F7000AF616D624A4641463046FFF719FB286053
:102F8000099B03B11D60BDE8F883000038B500243B
:102F900007E004EB840293000E481844FFF758FC46
:102FA0000134042CF5D90C4D2846FFF751FC0B4C8D
:102FB0002046FFF74DFC0A48FFF74AFC0948FFF797
:102FC00047FC0948FFF744FC084B1D60084B1C6098
:102FD00038BD00BF2C2B0020A42B0020B82B0020D4
:102FE000DC2B0020082C0020F42B0020242B0020B8
:102FF000282B002010B50446FFF704FB294A13686C
:1030000001331360284B1B685BB1284B1B686BB9FD
:10301000254B1B68DA6AE36A9A4207D8224B1C6088
:1030200004E0214B1C601368012B37D0204A136841
:10303000013313602364E36A01229A401D49086842
:1030400002430A601C4A03EB830302EB83035B68C1
:10305000A3609868E060211D41609960E36A03EB1A
:103060008301880002EB8101616111580131115027
:10307000FFF7EAFA0D4B1B687BB10B4B1B68DA6A52
:10308000E36A9A4209D24FF0E0234FF08052C3F82E
:10309000042DBFF34F8FBFF36F8F10BDFFF776FF87
:1030A000C4E700BF902B0020202B0020F02B002035
:1030B0009C2B0020A02B00202C2B00200F4B1B68EA
:1030C000D3B110B5FFF79EFA0D4BDB68DC68201D0D
:1030D000FFF7E5FB0B4A1368013B1360074A1368CF
:1030E000013B1360FFF7B0FA2046FFF7FDFE034BEC
:1030F0001B68002BE6D110BD704700BF942B002049
:10310000082C0020902B002008B5FFF7D7FF074BB5
:103110001B68012BF9D94FF0E0234FF08052C3F820
:10312000042DBFF34F8FBFF36F8FEEE72C2B0020E2
:1031300070B504460D46244B1E68244B18680430B5
:10314000FFF7ADFB50B9214B1B68DA6A012303FA84
:1031500002F21F490B6823EA02030B60B4F1FF3F40
:103160000DD03444194B1B685C60A6421DD9194B25
:103170001868164B19680431FFF778FB70BD002DF5
:10318000EFD0154A5168114B1868816018688C6837
:10319000C4601868043060601868043088601B6878
:1031A0005A61136801331360E8E70C4B1868074B4A
:1031B00019680431FFF75AFB094B1B68A342DDD99C
:1031C000074B1C60DAE700BF1C2C0020202B0020DE
:1031D000A02B0020282B0020F42B0020242B0020E3
:1031E000D02B00202DE9F04385B0074688461446D1
:1031F0001E469000FFF7E6F810B381465820FFF70F
:10320000E1F80546C0B15822002101F0D5F9C5F812
:103210003090D5B10023039302950D9B01930C9B35
:1032200000933346224641463846FFF766FE28465D
:10323000FFF7E0FE012005E04846FFF73FF9E8E729
:103240004FF0FF3005B0BDE8F0834FF0FF30F9E7F5
:1032500000B583B01A4B01930023009380221949D3
:103260001948FFF7BFFF012809D001280AD0B0F1A3
:10327000FF3F1CD0154B1B6803B05DF804FB00F04A
:1032800011FDF2E74FF0500383F31188BFF36F8F06
:10329000BFF34F8F0E4B4FF0FF321A600D4B0122E0
:1032A0001A600D4B00221A60FFF746FAE2E74FF072
:1032B000500383F31188BFF36F8FBFF34F8FFEE787
:1032C000CC2B002050750008093100082C0000208C
:1032D000D02B0020F02B00201C2C0020024A136869
:1032E00001331360704700BF982B0020014B186812
:1032F000704700BF1C2C0020F8B5524B1B68002BF8
:1033000040F09980504B1C6801341C60C4B94F4B8D
:103310001B681B6843B14FF0500383F31188BFF360
:103320006F8FBFF34F8FFEE7484A1168484B18680C
:1033300010601960474A136801331360FFF7C0FD3E
:10334000454B1B68A34211D90020444B1B68DB6A24
:1033500003EB83039A00424B9B58012B00D90120B9
:10336000404B1B68002B6BD0012069E0002037E048
:10337000394B4FF0FF321A60E7E7374B1A60E4E74A
:10338000D968516042E000219962116801391160E9
:10339000DA6A01219140344E37683943316030494F
:1033A00002EB82024FEA820C8C44DCF804209A6023
:1033B0009668DE6075609560DA6A02EB820C4FEA0F
:1033C0008C054E195E614D5901354FEA8C0C41F860
:1033D0000C50DA6A214B1B68DB6A9A4200D9012043
:1033E0001A4B1B681B68002BC2D0184B1B68DB688C
:1033F000DB685A689442C0D35A699D68D968A9604D
:103400009D684D6051681D1DA942B9D000215961C8
:103410001168013911609A6A002AB9D0DE69196A07
:10342000B160DE694E60566803F118018E42AAD180
:10343000196A5160A7E70D4A136801331360002031
:10344000F8BD00BF982B00201C2C0020242B00204E
:10345000282B0020D42B0020D02B0020202B002054
:103460002C2B0020202C0020A02B0020D82B00206B
:1034700038B54A4B1B6843B94FF0500383F31188AA
:10348000BFF36F8FBFF34F8FFEE7FFF7BBF8434BE0
:103490001A68013A1A601B68002B7AD1404B1B68EE
:1034A0003BB9002476E0196A516015E0D968516093
:1034B00021E000233B4A1268002A47D0394BDB68E1
:1034C000DB689A6AD869196A8160D869486050686F
:1034D00003F118018842E6D0002199621168013990
:1034E00011605A699868D968816098684860516825
:1034F000181D8142DAD0002159611168013911602B
:10350000DA6A01219140284C256829432160274926
:1035100002EB820201EB820252689A609468DC60DE
:1035200060609060DA6A02EB8200840001EB800048
:103530005861085901300851D96A1D4A1268D26A87
:103540009142B7D31B4A01211160B3E70BB1FFF7DA
:10355000B7FC194B1C6884B9164B1C68D4B14FF0EA
:10356000E0234FF08052C3F8042DBFF34F8FBFF319
:103570006F8F01240EE0013C07D0FFF7BDFE00284D
:10358000F9D00C4B01221A60F5E70B4B00221A60B0
:10359000E2E70024FFF758F8204638BD982B0020BA
:1035A000902B0020DC2B0020A02B00202C2B0020B7
:1035B000202B0020202C0020D82B002010B5A8B1F3
:1035C0000446104B1B6843B14FF0500383F311883E
:1035D000BFF36F8FBFF34F8FFEE7FFF77FFE002132
:1035E0002046FFF7A5FDFFF743FF48B94FF0E02362
:1035F0004FF08052C3F8042DBFF34F8FBFF36F8F8E
:1036000010BD00BF982B0020204B1B681BB1204B26
:1036100001221A6070471E4B00221A601D4B1B6866
:10362000B3FA83F3DBB2C3F11F0303EB83018A0018
:1036300019498A5842B94FF0500383F31188BFF3F8
:103640006F8FBFF34F8FFEE7134903EB83008200B8
:103650000A4450684068506003EB830C4FEA8C02C8
:1036600008321144884209D003EB83039A000A4BC5
:1036700013445B68DA68094B1A6070474068624619
:103680009100054A0A445060EEE700BF982B0020E5
:10369000202C0020A02B00202C2B0020202B0020F1
:1036A00058B110B50C46094A11681831FFF7DEF819
:1036B00001212046FFF73CFD10BD4FF0500383F37E
:1036C0001188BFF36F8FBFF34F8FFEE7202B0020D1
:1036D00038B5D8B18C46114605464268104B18687B
:1036E000C2611868946804621868183060601868CD
:1036F000183090601B689D622B6801332B6009B104
:103700004FF0FF3C6046FFF713FD38BD4FF050030C
:1037100083F31188BFF36F8FBFF34F8FFEE700BFB6
:10372000202B0020C368DB68002B4AD030B49A6A93
:10373000D869196A8160D8694860516803F1180036
:10374000814247D0002199621168013911602B4AEA
:103750001268002A44D15A699868D96881609868CB
:1037600048605168181D814237D0002159611168A5
:1037700001391160DA6A01219140214C2568294301
:103780002160204902EB820201EB820252689A60BA
:103790009468DC6060609060DA6A02EB820084000A
:1037A00001EB80005861085901300851DA6A164B64
:1037B0001B68DB6A9A421FD90120144B186030BC89
:1037C00070474FF0500383F31188BFF36F8FBFF33F
:1037D0004F8FFEE7196A5160B4E7D9685160C4E7BA
:1037E0000B4A5168D9618C681C62606088609A627B
:1037F000116801311160D9E70020E0E7982B002023
:10380000A02B00202C2B0020202B0020202C00207F
:10381000DC2B0020034B1B680360034B1B684360D9
:10382000704700BFD42B00201C2C0020F8B5B8B185
:103830000C460546E9B1FEF7E5FE1C4B19686B68BE
:10384000C81A2268B2F1FF3F2AD0194E36682F6895
:10385000B74217D08B4215D800232360012420E003
:103860004FF0500383F31188BFF36F8FBFF34F8F77
:10387000FEE74FF0500383F31188BFF36F8FBFF360
:103880004F8FFEE7824203D800232360012408E023
:103890005B1A134423602846FFF7BCFF002400E0B6
:1038A0000024FEF7D1FE2046F8BD00BF1C2C0020EE
:1038B000D42B0020014B01221A607047202C0020DD
:1038C000054B1B6833B1054B1B680BB100207047DB
:1038D0000220704701207047F02B0020982B002019
:1038E000002852D070B504462A4B1B68834208D08A
:1038F0004FF0500383F31188BFF36F8FBFF34F8FE7
:10390000FEE7C36C43B94FF0500383F31188BFF354
:103910006F8FBFF34F8FFEE7013BC364C16A826CB8
:10392000914234D00BB1002070BD051D2846FEF732
:10393000B6FF40B9E26A012303FA02F216490B68A6
:1039400023EA02030B60A36CE362C3F10502A261E8
:10395000012000FA03F210490E6832430A600F4A50
:1039600003EB830302EB83035B68A3609968E16068
:103970004D609D60E36A03EB83018D0002EB8101E2
:103980006161515901445151CEE700207047002038
:10399000CAE700BF202B0020A02B00202C2B0020EA
:1039A000064B1A6813682BB90123036023B9D36847
:1039B000186870470023F8E700207047242C002087
:1039C00008B54160006191420CD8D21A83699A42CD
:1039D00001D3012008BD011D094B1868FEF746FF01
:1039E0000020F7E79A4201D2994206D2011D054B09
:1039F0001868FEF73BFF0020ECE70120EAE700BF74
:103A0000282C0020242C002070B504460D461646B4
:103A100004E0A3691D44236A20469847A1692B4608
:103A2000324629442046FFF7CBFF0028F1D170BD74
:103A300070B505460E460D4B1B68DB68DC68201D23
:103A4000FEF72DFF94F8283013F0040F07D123F070
:103A5000010384F82830236A2046984770BD324617
:103A600029462046FFF7D0FFF5E700BF242C0020B1
:103A700008B505E0DB684FF0FF311868FFF7D8FFA5
:103A8000054B1B681A68002AF4D1044A10680249E1
:103A90000860136008BD00BF242C0020282C0020E3
:103AA00038B50546FFF722FC0446074B1B688342E6
:103AB00005D800232B60044B1C60204638BDFFF75F
:103AC000D7FF01232B60F6E7542C002070B582B09D
:103AD00006460C46FFF702FC01A8FFF7E1FF019B39
:103AE00033BB05460CB9B04219D224B1124A126850
:103AF0001268DAB901242246711B104B1868FFF7CF
:103B0000B5F9FFF7B5FCA8B94FF0E0234FF08052AC
:103B1000C3F8042DBFF34F8FBFF36F8F0AE0FFF799
:103B2000A7FC29463046FFF783FF03E01C46E2E787
:103B3000FFF79EFC02B070BD282C0020582C0020FE
:103B400030B585B0002201A9384B1868FFF7AFF8EF
:103B5000002869D0019B002BF4DB039C636913B13F
:103B6000201DFEF79CFE6846FFF79AFF0546019B65
:103B7000013B082BE6D8DFE803F0050529304905AD
:103B80000529300094F8283043F0010384F82830E8
:103B9000029BA169024619442046FFF711FF002845
:103BA000D0D094F8283013F0040F07D123F001038C
:103BB00084F82830236A20469847C3E7A3692A4639
:103BC000029919442046FFF71FFFF3E794F82830C5
:103BD00023F0010384F82830B4E794F8283043F048
:103BE000010384F828300299A16131B103460246ED
:103BF00001442046FFF7E4FEA4E74FF0500383F3AF
:103C00001188BFF36F8FBFF34F8FFEE794F8283012
:103C100013F0020F04D023F0010384F8283091E759
:103C20002046FEF74BFC8DE705B030BD582C002038
:103C300000B583B001A8FFF7B3FE0199FFF746FF77
:103C4000FFF77EFFF6E7000038B5FEF7DBFC0F4B11
:103C50001B6813B1FEF7F8FC38BD0D4D2846FEF782
:103C6000F7FD0C4C2046FEF7F3FD0B4B1D600B4B94
:103C70001C6000220C210A20FEF72AFF034B18606B
:103C80000028E7D00649FFF7C1F8E3E7582C0020E9
:103C90002C2C0020402C0020242C0020282C00203C
:103CA0005875000800B583B0FFF7CEFF0D4B1B68B9
:103CB0005BB10D4B01930223009300234FF48072FC
:103CC0000A490B48FFF78EFA40B94FF0500383F3CF
:103CD0001188BFF36F8FBFF34F8FFEE703B05DF81E
:103CE00004FB00BF582C00205C2C002060750008ED
:103CF000313C000881F0004102E000BF83F0004346
:103D000030B54FEA41044FEA430594EA050F08BF76
:103D100090EA020F1FBF54EA000C55EA020C7FEA3A
:103D2000645C7FEA655C00F0E2804FEA5454D4EBB7
:103D30005555B8BF6D420CDD2C4480EA020281EA81
:103D4000030382EA000083EA010180EA020281EAB9
:103D50000303362D88BF30BD11F0004F4FEA01310B
:103D60004FF4801C4CEA113102D0404261EB41011A
:103D700013F0004F4FEA03334CEA133302D05242A0
:103D800063EB430394EA050F00F0A780A4F101045C
:103D9000D5F1200E0DDB02FA0EFC22FA05F2801896
:103DA00041F1000103FA0EF2801843FA05F359417C
:103DB0000EE0A5F120050EF1200E012A03FA0EFCFB
:103DC00028BF4CF0020C43FA05F3C01851EBE37125
:103DD00001F0004507D54FF0000EDCF1000C7EEB42
:103DE00000006EEB0101B1F5801F1BD3B1F5001F80
:103DF0000CD349085FEA30004FEA3C0C04F101049F
:103E00004FEA445212F5800F80F09A80BCF1004FC7
:103E100008BF5FEA500C50F1000041EB045141EA49
:103E2000050130BD5FEA4C0C404141EB0101013C12
:103E300028BFB1F5801FE9D291F0000F04BF014601
:103E40000020B1FA81F308BF2033A3F10B03B3F1D3
:103E500020020CDA0C3208DD02F1140CC2F10C0263
:103E600001FA0CF021FA02F10CE002F11402D8BFC1
:103E7000C2F1200C01FA02F120FA0CFCDCBF41EA8D
:103E80000C019040E41AA2BF01EB0451294330BD5C
:103E90006FEA04041F3C1CDA0C340EDC04F1140439
:103EA000C4F1200220FA04F001FA02F340EA030010
:103EB00021FA04F345EA030130BDC4F10C04C4F156
:103EC000200220FA02F001FA04F340EA0300294636
:103ED00030BD21FA04F0294630BD94F0000F83F480
:103EE000801306BF81F480110134013D4EE77FEA63
:103EF000645C18BF7FEA655C29D094EA050F08BFAF
:103F000090EA020F05D054EA000C04BF194610468F
:103F100030BD91EA030F1EBF0021002030BD5FEAD3
:103F2000545C05D14000494128BF41F0004130BDFB
:103F300014F580043CBF01F5801130BD01F000454F
:103F400045F0FE4141F470014FF0000030BD7FEAC2
:103F5000645C1ABF194610467FEA655C1CBF0B46BD
:103F6000024650EA013406BF52EA033591EA030FD4
:103F700041F4002130BD00BF90F0000F04BF0021CC
:103F8000704730B54FF4806404F132044FF00005FF
:103F90004FF0000150E700BF90F0000F04BF002178
:103FA000704730B54FF4806404F1320410F00045DE
:103FB00048BF40424FF000013EE700BF42004FEAD9
:103FC000E2014FEA31014FEA02701FBF12F07F4356
:103FD00093F07F4F81F06051704732F07F4208BF0D
:103FE000704793F07F4F04BF41F40021704730B514
:103FF0004FF4607401F0004521F000411CE700BF60
:1040000050EA010208BF704730B54FF000050AE0E2
:1040100050EA010208BF704730B511F0004502D5E3
:10402000404261EB41014FF4806404F132045FEAE5
:10403000915C3FF4D8AE4FF003025FEADC0C18BF8E
:1040400003325FEADC0C18BF033202EBDC02C2F180
:10405000200300FA03FC20FA02F001FA03FE40EA12
:104060000E0021FA02F11444BDE600BF4FF0FF3C00
:1040700006E000BF4FF0010C02E000BF4FF0010C62
:104080004DF804CD4FEA410C7FEA6C5C4FEA430CDB
:1040900018BF7FEA6C5C1BD001B050EA410C0CBF2A
:1040A00052EA430C91EA030F02BF90EA020F00208C
:1040B000704710F1000F91EA030F58BF994208BFF3
:1040C00090422CBFD8176FEAE37040F001007047B0
:1040D0004FEA410C7FEA6C5C02D150EA013C07D107
:1040E0004FEA430C7FEA6C5CD6D152EA033CD3D052
:1040F0005DF8040B704700BF8446104662468C464C
:104100001946634600E000BF01B5FFF7B7FF00287E
:1041100048BF10F1000F01BD4DF808EDFFF7F4FFA7
:104120000CBF012000205DF808FB00BF4DF808ED32
:10413000FFF7EAFF34BF012000205DF808FB00BF55
:104140004DF808EDFFF7E0FF94BF012000205DF877
:1041500008FB00BF4DF808EDFFF7CEFF94BF01202C
:1041600000205DF808FB00BF4DF808EDFFF7C4FF25
:1041700034BF012000205DF808FB00BF4FEA410278
:1041800012F5001215D211D56FF47873B3EB6252A9
:1041900012D94FEAC12343F0004343EA505311F0D0
:1041A000004F23FA02F018BF404270474FF0000062
:1041B000704750EA013005D111F0004008BF6FF0A0
:1041C000004070474FF00000704700BF4FEA4102C7
:1041D000B2F1E04324BFB3F5001CDCF1FE5C0DD965
:1041E00001F0004C4FEAC0024CEA5070B2F1004FAF
:1041F00040EB830008BF20F00100704711F0804FB2
:1042000021D113F13872BCBF01F00040704741F476
:1042100080114FEA5252C2F11802C2F1200C10FA7A
:104220000CF320FA02F018BF40F001004FEAC1235E
:104230004FEAD32303FA0CFC40EA0C0023FA02F302
:104240004FEA4303CCE77FEA625307D150EA0133D8
:104250001EBF4FF0FE4040F44000704701F00040A8
:1042600040F0FE4040F40000704700BF53B94AB927
:10427000002908BF00281CBF4FF0FF314FF0FF306E
:1042800000F074B9ADF1080C6DE904CE00F006F849
:10429000DDF804E0DDE9022304B070472DE9F047C2
:1042A000089D04468E46002B4DD18A42944669D91A
:1042B000B2FA82F252B101FA02F3C2F1200120FAFD
:1042C00001F10CFA02FC41EA030E94404FEA1C484B
:1042D000210CBEFBF8F61FFA8CF708FB16E341EA47
:1042E000034306FB07F199420AD91CEB030306F1CD
:1042F000FF3080F01F81994240F21C81023E6344EE
:104300005B1AA4B2B3FBF8F008FB103344EA034491
:1043100000FB07F7A7420AD91CEB040400F1FF33A6
:1043200080F00A81A74240F207816444023840EAE3
:104330000640E41B00261DB1D4400023C5E900431C
:104340003146BDE8F0878B4209D9002D00F0EF809F
:104350000026C5E9000130463146BDE8F087B3FAD2
:1043600083F6002E4AD18B4202D3824200F2F980BA
:10437000841A61EB030301209E46002DE0D0C5E9BD
:10438000004EDDE702B9FFDEB2FA82F2002A40F009
:104390009280A1EB0C014FEA1C471FFA8CFE01260C
:1043A000200CB1FBF7F307FB131140EA01410EFBB0
:1043B00003F0884208D91CEB010103F1FF3802D257
:1043C000884200F2CB804346091AA4B2B1FBF7F051
:1043D00007FB101144EA01440EFB00FEA64508D974
:1043E0001CEB040400F1FF3102D2A64500F2BB80B1
:1043F0000846A4EB0E0440EA03409CE7C6F1200700
:10440000B34022FA07FC4CEA030C20FA07F401FA45
:1044100006F31C43F9404FEA1C4900FA06F3B1FBCE
:10442000F9F8200C1FFA8CFE09FB181140EA014133
:1044300008FB0EF0884202FA06F20BD91CEB0101D0
:1044400008F1FF3A80F08880884240F28580A8F128
:1044500002086144091AA4B2B1FBF9F009FB10117A
:1044600044EA014100FB0EFE8E4508D91CEB010118
:1044700000F1FF346CD28E456AD90238614440EABB
:104480000840A0FB0294A1EB0E01A142C846A6463B
:1044900056D353D05DB1B3EB080261EB0E0101FAC4
:1044A00007F722FA06F3F1401F43C5E90071002621
:1044B0003146BDE8F087C2F12003D8400CFA02FC77
:1044C00021FA03F3914001434FEA1C471FFA8CFE87
:1044D000B3FBF7F007FB10360B0C43EA064300FB77
:1044E0000EF69E4204FA02F408D91CEB030300F115
:1044F000FF382FD29E422DD9023863449B1B89B2CC
:10450000B3FBF7F607FB163341EA034106FB0EF354
:104510008B4208D91CEB010106F1FF3816D28B4201
:1045200014D9023E6144C91A46EA004638E72E46CD
:10453000284605E70646E3E61846F8E64B45A9D2C5
:10454000B9EB020864EB0C0E0138A3E74646EAE734
:10455000204694E74046D1E7D0467BE7023B6144E2
:1045600032E7304609E76444023842E7704700BF4B
:10457000014B1868704700BF30000020024B014615
:10458000186800F08DB800BF30000020024B0146D3
:10459000186800F019B800BF300000200A449142AA
:1045A00000F1FF3300D1704710B511F8014B03F84B
:1045B000014F9142F9D110BD02440346934200D10C
:1045C000704703F8011BF9E737B5002944D051F8CB
:1045D000043C0190002BA1F10404B8BFE41801F0E1
:1045E0001DFB1E4A0198136833B96360146003B061
:1045F000BDE8304001F018BBA34208D92568611915
:104600008B4201BF19685B6849192160EDE71A46C2
:104610005B680BB1A342FAD911685518A5420BD1BA
:10462000246821445418A3421160E0D11C685B68DF
:10463000536021441160DAE702D90C230360D6E706
:10464000256861198B4204BF19685B68636004BF09
:10465000491921605460CAE703B030BD602C0020C6
:1046600070B50E4E0C463168054611B900F094F84D
:1046700030602146284600F08FF8431C0AD0C41C45
:1046800024F00304A04207D0211A284600F084F841
:10469000013001D14FF0FF34204670BD642C002062
:1046A0002DE9F041CD1C25F0030508350C2D38BF50
:1046B0000C25002D074601DBA94205D90C233B60E0
:1046C00000263046BDE8F0812E4E01F0A7FA33688F
:1046D0001C4634BB29463846FFF7C2FF431C04463C
:1046E0004DD134682646002E40D1236831463846E5
:1046F00004EB030800F050F880453AD121680335F7
:104700006D1A25F0030508350C2D38BF0C252946F8
:104710003846FFF7A5FF01302BD023682B442360D8
:104720000EE02268521B1ED40B2A16D96119A3422F
:10473000256018BF5960636808BF316062514B60E3
:10474000384604F10B0601F06FFA26F00706231D28
:10475000F21AB6D09B1BA350B3E76268A3420CBF0A
:1047600032605A60ECE723466468B2E73446766804
:10477000B9E70C233B60384601F056FAA1E7256003
:10478000DEE700BF602C0020024B0A460146186895
:1047900001F027BF3000002038B5064D0023044645
:1047A00008462B60FCF730FB431C02D12B6803B199
:1047B000236038BD140200200EB400B59CB01DABC0
:1047C000029006906FF00041094807910491094951
:1047D00053F8042B05910068019302A901F08CFFA6
:1047E000029B00221A701CB05DF804EB03B0704706
:1047F000300000200802FFFF10F8012B11F8013BE8
:10480000012A28BF9A42F7D0D01A7047034613F8FE
:10481000012B002AFBD1181A0138704710B57AB164
:1048200003460139841813F8010B11F8012F904247
:1048300001D1A34201D1801A10BD0028F3D1FAE7BB
:104840001046F9E770B504460D4645EC104B164688
:1048500001F062FD51EC100B7EB1C5F30A53C3F1B8
:104860006B03002B09DD1B0503F17F55002405F5C3
:10487000401522462B4602F05DFA70BD0000000094
:104880002DE9F04F2DED028B9DB01F4600231893AC
:10489000A24B13921B680593044618468846FFF7FF
:1048A000B5FF4FF0000A05464FF0000BCDF85C80D5
:1048B000179B1A782B2A4ED03BD80D2A34D8082AB9
:1048C00034D8002A3ED000230A93179E3378302B29
:1048D00040F0B080737803F0DF03582B68D10A9B57
:1048E000019318AB029700938D4A19AB17A9204684
:1048F00000F07AFE10F00707054605D0062F2CD1F0
:104900000136002317960A93139B002B40F09085E5
:104910000A9BEBB152460BF1004343EC102B1DB048
:10492000BDEC028BBDE8F08F202ACCD10133179368
:10493000BEE72D2AC7D101220A925A1C17925B7832
:10494000002BC2D1139BCDF85C80002B40F06E850C
:1049500052465B46E1E70022EEE7189A3AB135216C
:104960001AA801F0E4FD1899204601F0A3F9013FCF
:10497000042F06D8DFE807F00A0314170A00DDE960
:104980001AAB2807C0D54BF0004BBDE7DDE91AA3F1
:10499000199A23F4801302F2334243EA025BF0E7F0
:1049A000DFF880B1EDE76FF0004B4FF0FF3AE8E73A
:1049B000179B5A1C17925B78302BF9D0002BA3D091
:1049C00001234FF000090493179B0893CDF81C9026
:1049D0004F460A2217980678A6F13003D9B2092962
:1049E0002AD905992A46FFF719FF98B300203246C5
:1049F0003D4605900346652A01D0452A18D11DB9C8
:104A0000049A02439ED00025DDF85C8008F1010283
:104A1000179298F801202B2A75D02D2A7BD04FF0C1
:104A2000000CA2F13001092940F28280CDF85C80AF
:104A300000269DE00023C4E7082FD8BF079900F1A6
:104A40000100DABF02FB0133079302FB093901378A
:104A50001790BFE7179B5A1917925A5D002F37D04E
:104A600005903D46A2F13003092B12D90123C2E77C
:104A7000179B5A1C17925A780130302AF8D0A2F1AD
:104A80003103082B00F2D984179B0590002008936E
:104A90000546303A00F1010314D0059919440591F7
:104AA0002B4600EB050E0A21734513D12B18082B5A
:104AB00005F1010505441CDC07990A2303FB0123CA
:104AC00007930023179A511C179152781846C9E78B
:104AD0003846D2E7082B04DC079E4E430796013385
:104AE000E2E703F1010CBCF1100FD8BF01FB09F99B
:104AF000F5E7102DDCBF0A2303FB0929E1E70023BA
:104B0000059301237CE74FF0000C08F10202179295
:104B100098F8022085E74FF0010CF6E7647700086B
:104B2000787600080000F07F179A511C1791527890
:104B3000302AF9D0A2F1310108293FF679AFA2F16C
:104B4000300E179A0692179A511C17915278A2F1BB
:104B50003006092E37D9069E891B082944F61F66A0
:104B600002DC7645A8BF7646BCF1000F00D0764245
:104B7000002D4DD1049901437FF4C6AE002B7FF484
:104B8000E1AE692A27D024DC492A24D04E2A7FF4BA
:104B9000D9AE9F4917A800F07FFF00283FF4D2AE9E
:104BA000179B1B78282B2DD19A491AAA17A800F019
:104BB00087FF052826D11B9BDDF868A043F0FF4B3B
:104BC0004BF4E00BA0E60A2101FB0E2EAEF1300EF5
:104BD000B9E76E2ADBE7904917A800F05DFF0028CF
:104BE0003FF4B0AE179B8D49013B17A8179300F017
:104BF00053FF10B9179B01331793DFF830B24FF012
:104C0000000A81E6864802F00BF85BEC10AB7BE60D
:104C1000059B0798F31A002F08BF2F46102D069307
:104C2000A846A8BF4FF01008FFF7A6F9092D824645
:104C30008B4613DD7B4B03EBC80353E9122302F0D1
:104C400079F8824648468B46FFF796F902460B46AE
:104C500050465946FFF754F882468B460F2D38DCF4
:104C6000069B002B3FF450AE24DD162B0BDC6D4968
:104C700001EBC301D1E9000152465B4602F05AF84C
:104C800082468B4640E6069AC5F12503934220DB17
:104C9000644CC5F10F0504EBC50152465B46D1E9F2
:104CA000000102F047F8069B5D1B04EBC504D4E944
:104CB0000023E3E7069B16330BDB059B9E1B594B3A
:104CC00003EBC606D6E900235046594602F05CF9CC
:104CD000D6E7069BA5EB08089844B8F1000F74DDF1
:104CE00018F00F030AD04F4901EBC30152465B464F
:104CF000D1E9000102F01EF882468B4638F00F0819
:104D00004FD0B8F59A7F22DD00252E4607950595F0
:104D10002223DFF818B123604FF0000A079B002B15
:104D20003FF4F2AD1899204600F0C4FF05992046E3
:104D300000F0C0FF3146204600F0BCFF0799204636
:104D400000F0B8FF2946204600F0B4FFDCE5364B02
:104D5000049300234FEA2818504659469946B8F163
:104D6000010F21DC0BB182468B462F4BABF1547BFC
:104D700003EBC90952465B46D9E9000101F0DAFFAD
:104D80002A4B0A460B402A498B428246BCD8A1F5E1
:104D900080118B4286BFDFF89CB04FF0FF3A02F1E2
:104DA000547B0023049384E018F0010F05D0049B8A
:104DB000D3E9002301F0BEFF0123049A083209F170
:104DC00001094FEA68080492C9E7EAD0C8F100086F
:104DD00018F00F020AD0134B03EBC203504659469A
:104DE000D3E9002302F0D0F882468B465FEA281808
:104DF000D7D0B8F11F0F1FDD00252E46079505956A
:104E000022234FF0000A4FF0000B236086E700BF1B
:104E1000727600088C760008697600086C760008C7
:104E20001179000838780008107800080000F07F39
:104E30000000A07CFFFFEF7F18F0100318BF6A236B
:104E4000DFF8AC93049350465946002318F0010F45
:104E500004D0D9E9002301F06DFF01235FEA68085F
:104E600009F10809F2D10BB182468B46049BC3B10C
:104E7000CBF30A52C2F16B03002B594611DD1F2BF5
:104E800040F32481342BDEBFC2F14B024FF0FF33DD
:104E900003FA02F24FF0000ACCBF4FF05C7B02EA4B
:104EA000010B0022002350465946FFF735F9002830
:104EB000A2D1079B009308992B463A46204600F062
:104EC00061FF079000283FF41FAF059B9E1B069BC8
:104ED000002BB4BF334600230C93069B002523EA26
:104EE000E37312932E46079B2046596800F0A2FEFA
:104EF000059000283FF40CAF079B1A69023203F1BA
:104F00000C0192000C30FFF749FB4BEC10AB1AAAD6
:104F100019A9204601F07CFA4BEC18AB1890002838
:104F20003FF4F6AE0121204600F0C6FF06460028F9
:104F30003FF4EEAE199B0499002BABBF0C9A129A6A
:104F4000129FDDF83090ACBF03EB0209D71A1A9A12
:104F5000A3EB01089044A14B08F1FF389845C2F13A
:104F6000360280F2C780A3EB08031F2BA2EB0302DB
:104F70004FF0010100F3B18001FA03F30D93002318
:104F8000089309EB0208049BC14517441F444B4694
:104F9000A8BF4346BB42A8BF3B46002BC2BFA8EBFD
:104FA0000308FF1AA9EB03090C9B002B17DD314600
:104FB0001A46204601F040F8064600283FF4A8AE05
:104FC0000146189A204600F08DFF0B9000283FF410
:104FD0009FAE1899204600F06DFE0B9B1893B8F118
:104FE000000F00F38C80069B002B08DD129A0599B8
:104FF000204601F021F8059000283FF489AE002FEB
:1050000008DD05993A46204601F070F80590002821
:105010003FF47EAEB9F1000F08DD31464A46204626
:1050200001F064F8064600283FF472AE059A18991C
:10503000204601F0E7F8054600283FF469AEC36852
:105040000B930023C360314601F0C0F8002860DAFA
:105050000B9B53EA0A0340F08280CBF31303002B2F
:105060007DD12BF000431B0D1B05B3F1D66F76D914
:105070006B6913B92B69012B71DD2946012220468A
:1050800001F034F83146054601F0A0F8002866DD4D
:105090000499534A5B46002900F0818002EA0B0123
:1050A000B1F1D66F7BDCB1F15C7F7FF7A9AE4D4BE0
:1050B00050465946002201F03DFE0B46034308BF0F
:1050C000222382468B4608BF23602BE64FF0FF3237
:1050D00002FA03F303EA0A0AE3E6C8F17F4808F597
:1050E0007F0808F57B4808F1E20801FA08F3089305
:1050F0000D9146E70023089301230D9341E718998A
:105100004246204600F0F2FF189000287FF46BAF73
:10511000FEE55F466ED10B9ACBF3130342B3324ADE
:10512000934228D1049B5146EBB12D4B3B40B3F148
:10513000D46F4FF0FF3219D81B0DC3F16B0302FA85
:1051400003F3994217D1294B9F4202D101313FF419
:10515000DFAD234B3B4003F5801B4FF0000A049B5F
:10516000002BA4D1DEE54FF0FF33EAE71346E8E772
:1051700053EA0A038CD0089BDBB13B42EFD00B9B78
:10518000049A50465946C3B1FFF75CFB02460B46F2
:1051900051EC180BFEF7B4FD82468B46DFE7134057
:1051A000A3F580136FEA135B6FEA0B5B4FF0FF3AD6
:1051B000D5E70D9B13EA0A0FE0E7FFF743FB024632
:1051C0000B4651EC180BFEF799FD00220023824696
:1051D0008B46FEF7A1FF0028C1D011E602FCFFFFBD
:1051E0000000F07F00005039FFFF0F00FFFFEF7F4E
:1051F000A07600083146284601F066F959EC108B7C
:1052000010EE100A00224FF080434946FEF798FF47
:1052100000287AD00B9B002B4AD0954B0022CDE979
:105220000823DFF84C924FF00008924B3B400D935F
:105230000D9A914B9A4240F0B080DDE90801A7F148
:10524000547B4BEC10ABCDE9080101F065F8DDE9CA
:10525000080153EC102B01F06DFD52465B46FEF742
:105260004FFD0B468349854A19409142824660D9D9
:1052700018EE903A02F15472934204D118EE103AAB
:1052800001333FF445ADDFF800B24FF0FF3A189913
:10529000204600F00FFD0599204600F00BFD314639
:1052A000204600F007FD2946204600F003FD1AE6DF
:1052B000BAF1000F1BD1CBF31303F3B96C4B0022EF
:1052C00040464946FEF732FFD0B9404649466C4B4E
:1052D000002201F02FFD8046894609F10043CDF8F8
:1052E00050801593DDE91423CDE908239DE7BAF139
:1052F000010F02D1002F3FF483AD624B00228EE7F5
:10530000DFF87C914FF00008E7E75D4B40464946E7
:10531000002201F00FFD0B9B8046894633B901F155
:1053200000430E900F93DDE90E23DDE7CDE90E89F2
:10533000F9E703F1547B049B002BA8D12BF0004329
:105340000D9A1B0D1B059A42A1D14046494601F01A
:1053500023FFFEF75DFE02460B4640464946FEF738
:10536000CDFC0B9ACBF3130343EA0A0313438046A5
:10537000894655D036A3D3E90023FEF7D7FE00288F
:105380007FF4D0AC34A3D3E9002340464946FEF76E
:10539000EBFE00283FF47BAFC4E4049B33B30D9BCA
:1053A000B3F1D46F22D82EA3D3E900234046494657
:1053B000FEF7C6FEA0B14946404601F0CDFE0128E9
:1053C00038BF0120FEF7D8FD0B9B8046894623BBE2
:1053D00001F1004310901193DDE91023CDE908237A
:1053E000099B0D9A03F1D6639B1A0993DDE9080125
:1053F000B0EE480AF0EE680ACDE9080100F08CFF33
:10540000DDE9080153EC102B01F094FC53EC182B50
:10541000FEF776FC82468B468DE7CDE91089DBE707
:1054200011A3D3E90023FEF781FEB2E700230A931C
:10543000139A179B1360FFF76BBA652A3FF45FABB3
:10544000452A3FF45CAB0123FFF794BBAFF3008028
:105450009535A094FFFFDF3F35E5AF350000E03F15
:105460000000C0FFFFFFDF419535A094FFFFCF3F55
:105470000000F03F0000F07F0000E07FFFFF9F7C16
:105480000000E03F0000F0BFFFFFEF7F0A4601464B
:105490000248034B0068FFF7F3B900BF300000205B
:1054A0009800002030B51446002C9BB005461A46E3
:1054B00005DA8B2303604FF0FF301BB030BD4FF493
:1054C0000273ADF80C3014BF04F1FF33234602938E
:1054D00005934FF6FF7300910491ADF80E306946C5
:1054E0001E9B01F009F9431CBCBF8B232B60002CD1
:1054F000E3D0009B00221A70DFE7000007B500939D
:1055000013460A46014603480068FFF7CBFF03B085
:105510005DF804FB300000200369B3EB611F2DE947
:10552000F0434FEA611200F1140445DD11F01F0150
:1055300004EB830604EB82050CD100F11007294629
:10554000B14234D39B1A9B00EA1E964238BF002317
:10555000234415E054F82270C1F12008CF4005F132
:10556000040EA1467645F44615D89A1A9200043ADC
:105570000135AE4238BF0022A318A75007B104334B
:105580001A1BA3424FEAA20208BF0023026108BF10
:105590004361BDE8F083DCF800C00CFA08FC4CEA7B
:1055A000070749F8047B5EF8047BCF40DAE751F83F
:1055B00004CB47F804CFC3E72346E1E7A0F130036B
:1055C000092B02D82038C0B27047A0F16103052B27
:1055D00001D84738F7E7A0F14103052B01D8273858
:1055E000F1E70020704700002DE9F04F2DED028B10
:1055F00089B008EE100A0493B44B1B680193184657
:105600008B469046FFF702F9019BDBF8002003442C
:10561000824613F8013C0593931CC2F1FF2202F568
:105620007F02FE32D1181F4613F8010B009130287B
:10563000F8D0FFF7C3FF044600283AD1019952463B
:105640003846FFF7EBF80546002868D117F80A003E
:1056500007EB0A06FFF7B2FF002862D0334618783E
:1056600030281F4603F10103F9D0FFF7A7FF0123FC
:10567000B0FA80F46409354600933A461646013282
:105680003078FFF79BFF0028F8D101995246304649
:10569000FFF7C4F880B94DB906EB0A052A4616464D
:1056A00001323078FFF78AFF0028F8D1AD1BAD003A
:1056B00004E000242546E0E7002DF7D1337803F01D
:1056C000DF03502B3BD173782B2B2CD02D2B2ED0DE
:1056D000711C4FF000090878FFF770FF431EDBB222
:1056E000182B2CD8A0F1100211F8010FFFF766FF5C
:1056F000431EDBB2182B1DD9B9F1000F00D0524266
:105700001544CBF80010E4B1009B002B14BF002718
:105710000627384609B0BDEC028BBDE8F08F3E4647
:1057200025460124CAE74FF00009B11CD3E74FF02A
:105730000109FAE70A2303FB0202103AD4E73146D3
:10574000DFE7F31B013B2146072B0BDC18EE100AA9
:1057500000F070FA044640B95D4B0246DE215D4818
:10576000FBF72AFB01315B10EEE700F114094FF063
:10577000000BCAF10103CDF80890CDF800B00693F4
:10578000B74240D30298009B40F8043BA0EB0900CD
:10579000801046012061184600F03EFB301AD8F810
:1057A0000060B04263DD871B3946204600F0E2FE10
:1057B0008246A8B17B1E591103F01F0259F821102F
:1057C0004FF0010A0AFA02F20A4209D0534505DDF8
:1057D000B91E204600F0CEFE002845D14FF0020A47
:1057E00039462046FFF798FE3D44D8F80830AB42D2
:1057F0004CDA18EE100A214600F05CFA149A0023E5
:105800001360A32785E7731E059A039316F8013CDE
:10581000934219D0BBF1200F07D1029B009A43F8A5
:10582000042B0293002300939B4616F8010CFFF70C
:10583000C5FE009B00F00F0000FA0BF0034300933D
:105840000BF1040B039B0DE0039B069A1344BB4230
:10585000E0D31846019907935246FEF7DFFF079BF6
:105860000028D7D11E468BE74FF0030AB8E70ADAC3
:10587000371A214618EE100A3A4600F037FCED1BA5
:10588000044600F114094FF0000AAEE7D8F804000E
:10589000A84272DD451BAE4236DCD8F80C30022B34
:1058A0002AD0032B2CD0012B1CD1AE421AD1012EB1
:1058B00012D1049AD8F80430136001232361C9F887
:1058C0000030149B62271C6023E700BF6477000848
:1058D000C8760008D9760008711E204600F04AFEFE
:1058E0000028E6D118EE100A214600F0E3F9149AD8
:1058F0000023136050270CE7159B002BF2D1D8E74B
:10590000159B002BD5D1EDE76F1EBAF1000F31D1F9
:1059100027B13946204600F02DFE82467B11012139
:1059200059F8233007F01F0701FA07F71F422946ED
:10593000204618BF4AF0020A761BFFF7EDFDD8F8A3
:1059400004500227BAF1000F48D0D8F80C30022BCF
:1059500015D0032B17D0012B09D11AF0020F06D056
:10596000D9F800004AEA000A1AF0010F0ED147F0F8
:10597000100733E04FF0010AD0E70127E2E7159B5B
:10598000C3F101031593159B002BF0D0D4F810B090
:1059900004F114034FEA8B0A03EB8B014FF0000C68
:1059A000184653F8042BB2F1FF3F1CD001320260BD
:1059B000022F04F114033FD1D8F80020013AB2427B
:1059C0000AD17111012253F8213006F01F0602FAA4
:1059D00006F61E4218BF174647F02007149B1C60AE
:1059E000049B1D6095E6994243F804CCD8D8A3687F
:1059F0009B4519DB616818EE100A013100F01AF9B5
:105A0000814618B91A4B02468421A8E6226902325F
:105A100004F10C0192000C30FEF7C0FD214618EE97
:105A2000100A00F047F94C4623695A1C04EB830323
:105A3000226101225A61BBE722695A450BDD01212F
:105A40002046FFF769FDD8F808300135AB42FFF674
:105A5000D0AE0127C0E716F01F06FAD05344C6F1B6
:105A6000200653F8040C00F0D7F9B042E7DBF0E76A
:105A7000C8760008C2F10802920070B5C2F1200693
:105A80004368046803FA06F52C43D340046040F8E9
:105A9000043F8842F4D370BD30B50368013311F878
:105AA000014B14B90360012030BD13F8012BA2F1A2
:105AB0004105192D98BF2032A242F0D00020F3E713
:105AC0002DE9F04F0B685E1102EB860613F01F0301
:105AD00087B018BF04360025371F9046026801932F
